{
  "_format": "hh-sol-artifact-1",
  "contractName": "Defisalary",
  "sourceName": "contracts/Defisalary.sol",
  "abi": [
    {
      "inputs": [
        {
          "internalType": "address",
          "name": "_priceFeedAddress",
          "type": "address"
        }
      ],
      "stateMutability": "nonpayable",
      "type": "constructor"
    },
    {
      "inputs": [
        {
          "internalType": "address",
          "name": "owner",
          "type": "address"
        }
      ],
      "name": "OwnableInvalidOwner",
      "type": "error"
    },
    {
      "inputs": [
        {
          "internalType": "address",
          "name": "account",
          "type": "address"
        }
      ],
      "name": "OwnableUnauthorizedAccount",
      "type": "error"
    },
    {
      "inputs": [
        {
          "internalType": "address",
          "name": "employeeAddress",
          "type": "address"
        },
        {
          "internalType": "uint256",
          "name": "ethAmount",
          "type": "uint256"
        },
        {
          "internalType": "string",
          "name": "reason",
          "type": "string"
        }
      ],
      "name": "SalaryPaymentFailed",
      "type": "error"
    },
    {
      "anonymous": false,
      "inputs": [
        {
          "indexed": true,
          "internalType": "uint256",
          "name": "employeeId",
          "type": "uint256"
        },
        {
          "indexed": true,
          "internalType": "address",
          "name": "employeeAddress",
          "type": "address"
        },
        {
          "indexed": false,
          "internalType": "string",
          "name": "name",
          "type": "string"
        },
        {
          "indexed": false,
          "internalType": "uint256",
          "name": "salaryUSD",
          "type": "uint256"
        }
      ],
      "name": "EmployeeAdded",
      "type": "event"
    },
    {
      "anonymous": false,
      "inputs": [
        {
          "indexed": true,
          "internalType": "uint256",
          "name": "employeeId",
          "type": "uint256"
        },
        {
          "indexed": true,
          "internalType": "address",
          "name": "employeeAddress",
          "type": "address"
        }
      ],
      "name": "EmployeeRemoved",
      "type": "event"
    },
    {
      "anonymous": false,
      "inputs": [
        {
          "indexed": true,
          "internalType": "uint256",
          "name": "employeeId",
          "type": "uint256"
        },
        {
          "indexed": true,
          "internalType": "address",
          "name": "employeeAddress",
          "type": "address"
        }
      ],
      "name": "EmployeeUpdated",
      "type": "event"
    },
    {
      "anonymous": false,
      "inputs": [
        {
          "indexed": true,
          "internalType": "address",
          "name": "previousOwner",
          "type": "address"
        },
        {
          "indexed": true,
          "internalType": "address",
          "name": "newOwner",
          "type": "address"
        }
      ],
      "name": "OwnershipTransferred",
      "type": "event"
    },
    {
      "anonymous": false,
      "inputs": [
        {
          "indexed": true,
          "internalType": "address",
          "name": "employee",
          "type": "address"
        },
        {
          "indexed": false,
          "internalType": "uint256",
          "name": "amountUSD",
          "type": "uint256"
        },
        {
          "indexed": false,
          "internalType": "uint256",
          "name": "amountETH",
          "type": "uint256"
        }
      ],
      "name": "SalaryPaid",
      "type": "event"
    },
    {
      "inputs": [
        {
          "internalType": "address",
          "name": "_walletAddress",
          "type": "address"
        },
        {
          "internalType": "string",
          "name": "_name",
          "type": "string"
        },
        {
          "internalType": "uint256",
          "name": "_salaryUSD",
          "type": "uint256"
        },
        {
          "internalType": "uint256",
          "name": "_salaryPaymentDay",
          "type": "uint256"
        }
      ],
      "name": "addEmployee",
      "outputs": [
        {
          "internalType": "uint256",
          "name": "",
          "type": "uint256"
        }
      ],
      "stateMutability": "nonpayable",
      "type": "function"
    },
    {
      "inputs": [
        {
          "internalType": "uint256",
          "name": "_usdAmount",
          "type": "uint256"
        }
      ],
      "name": "calculateETHAmount",
      "outputs": [
        {
          "internalType": "uint256",
          "name": "",
          "type": "uint256"
        }
      ],
      "stateMutability": "view",
      "type": "function"
    },
    {
      "inputs": [
        {
          "internalType": "bytes",
          "name": "",
          "type": "bytes"
        }
      ],
      "name": "checkUpkeep",
      "outputs": [
        {
          "internalType": "bool",
          "name": "upkeepNeeded",
          "type": "bool"
        },
        {
          "internalType": "bytes",
          "name": "performData",
          "type": "bytes"
        }
      ],
      "stateMutability": "view",
      "type": "function"
    },
    {
      "inputs": [],
      "name": "getAllActiveEmployees",
      "outputs": [
        {
          "components": [
            {
              "internalType": "uint256",
              "name": "id",
              "type": "uint256"
            },
            {
              "internalType": "string",
              "name": "name",
              "type": "string"
            },
            {
              "internalType": "address payable",
              "name": "walletAddress",
              "type": "address"
            },
            {
              "internalType": "uint256",
              "name": "salaryUSD",
              "type": "uint256"
            },
            {
              "internalType": "uint256",
              "name": "dateOfJoining",
              "type": "uint256"
            },
            {
              "internalType": "uint256",
              "name": "salaryPaymentDay",
              "type": "uint256"
            },
            {
              "internalType": "bool",
              "name": "isActive",
              "type": "bool"
            }
          ],
          "internalType": "struct Defisalary.Employee[]",
          "name": "",
          "type": "tuple[]"
        }
      ],
      "stateMutability": "view",
      "type": "function"
    },
    {
      "inputs": [],
      "name": "getAllEmployeeAddresses",
      "outputs": [
        {
          "internalType": "address[]",
          "name": "",
          "type": "address[]"
        }
      ],
      "stateMutability": "view",
      "type": "function"
    },
    {
      "inputs": [],
      "name": "getAllInactiveEmployees",
      "outputs": [
        {
          "components": [
            {
              "internalType": "uint256",
              "name": "id",
              "type": "uint256"
            },
            {
              "internalType": "string",
              "name": "name",
              "type": "string"
            },
            {
              "internalType": "address payable",
              "name": "walletAddress",
              "type": "address"
            },
            {
              "internalType": "uint256",
              "name": "salaryUSD",
              "type": "uint256"
            },
            {
              "internalType": "uint256",
              "name": "dateOfJoining",
              "type": "uint256"
            },
            {
              "internalType": "uint256",
              "name": "salaryPaymentDay",
              "type": "uint256"
            },
            {
              "internalType": "bool",
              "name": "isActive",
              "type": "bool"
            }
          ],
          "internalType": "struct Defisalary.Employee[]",
          "name": "",
          "type": "tuple[]"
        }
      ],
      "stateMutability": "view",
      "type": "function"
    },
    {
      "inputs": [
        {
          "internalType": "uint256",
          "name": "_employeeId",
          "type": "uint256"
        }
      ],
      "name": "getEmployeeAddress",
      "outputs": [
        {
          "internalType": "address",
          "name": "",
          "type": "address"
        }
      ],
      "stateMutability": "view",
      "type": "function"
    },
    {
      "inputs": [],
      "name": "getEmployeeCount",
      "outputs": [
        {
          "internalType": "uint256",
          "name": "",
          "type": "uint256"
        }
      ],
      "stateMutability": "view",
      "type": "function"
    },
    {
      "inputs": [
        {
          "internalType": "address",
          "name": "_employeeAddress",
          "type": "address"
        }
      ],
      "name": "getEmployeeDetails",
      "outputs": [
        {
          "components": [
            {
              "internalType": "uint256",
              "name": "id",
              "type": "uint256"
            },
            {
              "internalType": "string",
              "name": "name",
              "type": "string"
            },
            {
              "internalType": "address payable",
              "name": "walletAddress",
              "type": "address"
            },
            {
              "internalType": "uint256",
              "name": "salaryUSD",
              "type": "uint256"
            },
            {
              "internalType": "uint256",
              "name": "dateOfJoining",
              "type": "uint256"
            },
            {
              "internalType": "uint256",
              "name": "salaryPaymentDay",
              "type": "uint256"
            },
            {
              "internalType": "bool",
              "name": "isActive",
              "type": "bool"
            }
          ],
          "internalType": "struct Defisalary.Employee",
          "name": "",
          "type": "tuple"
        }
      ],
      "stateMutability": "view",
      "type": "function"
    },
    {
      "inputs": [],
      "name": "getLatestETHPrice",
      "outputs": [
        {
          "internalType": "uint256",
          "name": "",
          "type": "uint256"
        }
      ],
      "stateMutability": "view",
      "type": "function"
    },
    {
      "inputs": [
        {
          "internalType": "address",
          "name": "_employeeAddress",
          "type": "address"
        }
      ],
      "name": "getPaymentHistory",
      "outputs": [
        {
          "components": [
            {
              "internalType": "uint256",
              "name": "id",
              "type": "uint256"
            },
            {
              "internalType": "uint256",
              "name": "timestamp",
              "type": "uint256"
            },
            {
              "internalType": "uint256",
              "name": "amountUSD",
              "type": "uint256"
            },
            {
              "internalType": "uint256",
              "name": "amountETH",
              "type": "uint256"
            }
          ],
          "internalType": "struct Defisalary.PaymentRecord[]",
          "name": "",
          "type": "tuple[]"
        }
      ],
      "stateMutability": "view",
      "type": "function"
    },
    {
      "inputs": [],
      "name": "getTotalActiveEmployees",
      "outputs": [
        {
          "internalType": "uint256",
          "name": "",
          "type": "uint256"
        }
      ],
      "stateMutability": "view",
      "type": "function"
    },
    {
      "inputs": [],
      "name": "getTotalSalaryPaidUSD",
      "outputs": [
        {
          "internalType": "uint256",
          "name": "",
          "type": "uint256"
        }
      ],
      "stateMutability": "view",
      "type": "function"
    },
    {
      "inputs": [],
      "name": "owner",
      "outputs": [
        {
          "internalType": "address",
          "name": "",
          "type": "address"
        }
      ],
      "stateMutability": "view",
      "type": "function"
    },
    {
      "inputs": [
        {
          "internalType": "bytes",
          "name": "performData",
          "type": "bytes"
        }
      ],
      "name": "performUpkeep",
      "outputs": [],
      "stateMutability": "nonpayable",
      "type": "function"
    },
    {
      "inputs": [
        {
          "internalType": "address",
          "name": "_employeeAddress",
          "type": "address"
        }
      ],
      "name": "removeEmployee",
      "outputs": [],
      "stateMutability": "nonpayable",
      "type": "function"
    },
    {
      "inputs": [],
      "name": "renounceOwnership",
      "outputs": [],
      "stateMutability": "nonpayable",
      "type": "function"
    },
    {
      "inputs": [
        {
          "internalType": "address",
          "name": "newOwner",
          "type": "address"
        }
      ],
      "name": "transferOwnership",
      "outputs": [],
      "stateMutability": "nonpayable",
      "type": "function"
    },
    {
      "inputs": [
        {
          "internalType": "address",
          "name": "_employeeAddress",
          "type": "address"
        },
        {
          "internalType": "string",
          "name": "_name",
          "type": "string"
        },
        {
          "internalType": "uint256",
          "name": "_salaryUSD",
          "type": "uint256"
        },
        {
          "internalType": "uint256",
          "name": "_salaryPaymentDay",
          "type": "uint256"
        }
      ],
      "name": "updateEmployeeDetails",
      "outputs": [],
      "stateMutability": "nonpayable",
      "type": "function"
    },
    {
      "stateMutability": "payable",
      "type": "receive"
    }
  ],
  "bytecode": "0x6080604052600160065560006007553480156200001b57600080fd5b5060405162003e4738038062003e4783398181016040528101906200004191906200023f565b33600073ffffffffffffffffffffffffffffffffffffffff168173ffffffffffffffffffffffffffffffffffffffff1603620000b75760006040517f1e4fbdf7000000000000000000000000000000000000000000000000000000008152600401620000ae919062000282565b60405180910390fd5b620000c8816200011160201b60201c565b5080600160006101000a81548173ffffffffffffffffffffffffffffffffffffffff021916908373ffffffffffffffffffffffffffffffffffffffff160217905550506200029f565b60008060009054906101000a900473ffffffffffffffffffffffffffffffffffffffff169050816000806101000a81548173ffffffffffffffffffffffffffffffffffffffff021916908373ffffffffffffffffffffffffffffffffffffffff1602179055508173ffffffffffffffffffffffffffffffffffffffff168173ffffffffffffffffffffffffffffffffffffffff167f8be0079c531659141344cd1fd0a4f28419497f9722a3daafe3b4186f6b6457e060405160405180910390a35050565b600080fd5b600073ffffffffffffffffffffffffffffffffffffffff82169050919050565b60006200020782620001da565b9050919050565b6200021981620001fa565b81146200022557600080fd5b50565b60008151905062000239816200020e565b92915050565b600060208284031215620002585762000257620001d5565b5b6000620002688482850162000228565b91505092915050565b6200027c81620001fa565b82525050565b600060208201905062000299600083018462000271565b92915050565b613b9880620002af6000396000f3fe6080604052600436106101185760003560e01c8063715018a6116100a0578063c2a63e3b11610064578063c2a63e3b146103d5578063d108177a14610400578063d31c2ecd14610429578063dd6b194814610452578063f2fde38b1461047d5761011f565b8063715018a6146102ee578063777e0d86146103055780637da2ba7c146103305780638da5cb5b1461036d578063b93d8e12146103985761011f565b80634585e33b116100e75780634585e33b146101f457806347e8c1961461021d5780635dd38bfa146102485780636e04ff0d146102735780636e37b5a5146102b15761011f565b80631caafcf11461012457806327d1fa9e1461016157806329898f6e1461018c57806340fbc166146101b75761011f565b3661011f57005b600080fd5b34801561013057600080fd5b5061014b6004803603810190610146919061240f565b6104a6565b60405161015891906125bd565b60405180910390f35b34801561016d57600080fd5b5061017661062a565b60405161018391906125ee565b60405180910390f35b34801561019857600080fd5b506101a1610634565b6040516101ae91906126c7565b60405180910390f35b3480156101c357600080fd5b506101de60048036038101906101d99190612715565b6106c2565b6040516101eb91906125ee565b60405180910390f35b34801561020057600080fd5b5061021b600480360381019061021691906127a7565b61070f565b005b34801561022957600080fd5b5061023261078f565b60405161023f91906125ee565b60405180910390f35b34801561025457600080fd5b5061025d610799565b60405161026a9190612952565b60405180910390f35b34801561027f57600080fd5b5061029a60048036038101906102959190612aa4565b610b5b565b6040516102a8929190612b51565b60405180910390f35b3480156102bd57600080fd5b506102d860048036038101906102d39190612715565b610dab565b6040516102e59190612b90565b60405180910390f35b3480156102fa57600080fd5b50610303610de8565b005b34801561031157600080fd5b5061031a610dfc565b60405161032791906125ee565b60405180910390f35b34801561033c57600080fd5b506103576004803603810190610352919061240f565b610ef0565b6040516103649190612caf565b60405180910390f35b34801561037957600080fd5b50610382610fb6565b60405161038f9190612b90565b60405180910390f35b3480156103a457600080fd5b506103bf60048036038101906103ba9190612d72565b610fdf565b6040516103cc91906125ee565b60405180910390f35b3480156103e157600080fd5b506103ea611412565b6040516103f791906125ee565b60405180910390f35b34801561040c57600080fd5b506104276004803603810190610422919061240f565b61141f565b005b34801561043557600080fd5b50610450600480360381019061044b9190612d72565b61173f565b005b34801561045e57600080fd5b5061046761189e565b6040516104749190612952565b60405180910390f35b34801561048957600080fd5b506104a4600480360381019061049f919061240f565b611c5e565b005b6104ae612348565b600260008373ffffffffffffffffffffffffffffffffffffffff1673ffffffffffffffffffffffffffffffffffffffff1681526020019081526020016000206040518060e00160405290816000820154815260200160018201805461051290612e24565b80601f016020809104026020016040519081016040528092919081815260200182805461053e90612e24565b801561058b5780601f106105605761010080835404028352916020019161058b565b820191906000526020600020905b81548152906001019060200180831161056e57829003601f168201915b505050505081526020016002820160009054906101000a900473ffffffffffffffffffffffffffffffffffffffff1673ffffffffffffffffffffffffffffffffffffffff1673ffffffffffffffffffffffffffffffffffffffff1681526020016003820154815260200160048201548152602001600582015481526020016006820160009054906101000a900460ff1615151515815250509050919050565b6000600754905090565b606060058054806020026020016040519081016040528092919081815260200182805480156106b857602002820191906000526020600020905b8160009054906101000a900473ffffffffffffffffffffffffffffffffffffffff1673ffffffffffffffffffffffffffffffffffffffff168152602001906001019080831161066e575b5050505050905090565b600080670de0b6b3a7640000836106d99190612e84565b905060006106e5610dfc565b905080670de0b6b3a7640000836106fc9190612e84565b6107069190612ef5565b92505050919050565b600061072960405180602001604052806000815250610b5b565b5090508061076c576040517f08c379a000000000000000000000000000000000000000000000000000000000815260040161076390612f83565b60405180910390fd5b600083839061077b9190612fe7565b60601c905061078981611ce4565b50505050565b6000600854905090565b60606000805b6005805490508110156108615760026000600583815481106107c4576107c3613046565b5b9060005260206000200160009054906101000a900473ffffffffffffffffffffffffffffffffffffffff1673ffffffffffffffffffffffffffffffffffffffff1673ffffffffffffffffffffffffffffffffffffffff16815260200190815260200160002060060160009054906101000a900460ff161561084e57818061084a90613075565b9250505b808061085990613075565b91505061079f565b5060008167ffffffffffffffff81111561087e5761087d612979565b5b6040519080825280602002602001820160405280156108b757816020015b6108a4612348565b81526020019060019003908161089c5790505b5090506000805b600580549050811015610b515760026000600583815481106108e3576108e2613046565b5b9060005260206000200160009054906101000a900473ffffffffffffffffffffffffffffffffffffffff1673ffffffffffffffffffffffffffffffffffffffff1673ffffffffffffffffffffffffffffffffffffffff16815260200190815260200160002060060160009054906101000a900460ff1615610b3e57600260006005838154811061097657610975613046565b5b9060005260206000200160009054906101000a900473ffffffffffffffffffffffffffffffffffffffff1673ffffffffffffffffffffffffffffffffffffffff1673ffffffffffffffffffffffffffffffffffffffff1681526020019081526020016000206040518060e001604052908160008201548152602001600182018054610a0090612e24565b80601f0160208091040260200160405190810160405280929190818152602001828054610a2c90612e24565b8015610a795780601f10610a4e57610100808354040283529160200191610a79565b820191906000526020600020905b815481529060010190602001808311610a5c57829003601f168201915b505050505081526020016002820160009054906101000a900473ffffffffffffffffffffffffffffffffffffffff1673ffffffffffffffffffffffffffffffffffffffff1673ffffffffffffffffffffffffffffffffffffffff1681526020016003820154815260200160048201548152602001600582015481526020016006820160009054906101000a900460ff161515151581525050838381518110610b2457610b23613046565b5b60200260200101819052508180610b3a90613075565b9250505b8080610b4990613075565b9150506108be565b5081935050505090565b6000606060005b600580549050811015610d8e57600060058281548110610b8557610b84613046565b5b9060005260206000200160009054906101000a900473ffffffffffffffffffffffffffffffffffffffff1690506000600260008373ffffffffffffffffffffffffffffffffffffffff1673ffffffffffffffffffffffffffffffffffffffff1681526020019081526020016000206040518060e001604052908160008201548152602001600182018054610c1890612e24565b80601f0160208091040260200160405190810160405280929190818152602001828054610c4490612e24565b8015610c915780601f10610c6657610100808354040283529160200191610c91565b820191906000526020600020905b815481529060010190602001808311610c7457829003601f168201915b505050505081526020016002820160009054906101000a900473ffffffffffffffffffffffffffffffffffffffff1673ffffffffffffffffffffffffffffffffffffffff1673ffffffffffffffffffffffffffffffffffffffff1681526020016003820154815260200160048201548152602001600582015481526020016006820160009054906101000a900460ff16151515158152505090508060c001518015610d4657508060a00151610d4461201f565b145b15610d79576001945081604051602001610d609190613105565b6040516020818303038152906040529350505050610da6565b50508080610d8690613075565b915050610b62565b50600060405180602001604052806000815250915091505b915091565b60006003600083815260200190815260200160002060009054906101000a900473ffffffffffffffffffffffffffffffffffffffff169050919050565b610df061202f565b610dfa60006120b6565b565b600080600160009054906101000a900473ffffffffffffffffffffffffffffffffffffffff1673ffffffffffffffffffffffffffffffffffffffff1663feaf968c6040518163ffffffff1660e01b815260040160a060405180830381865afa158015610e6c573d6000803e3d6000fd5b505050506040513d601f19601f82011682018060405250810190610e9091906131ad565b50505091505060008113610ed9576040517f08c379a0000000000000000000000000000000000000000000000000000000008152600401610ed090613274565b60405180910390fd5b6402540be40081610eea9190612e84565b91505090565b6060600460008373ffffffffffffffffffffffffffffffffffffffff1673ffffffffffffffffffffffffffffffffffffffff168152602001908152602001600020805480602002602001604051908101604052809291908181526020016000905b82821015610fab578382906000526020600020906004020160405180608001604052908160008201548152602001600182015481526020016002820154815260200160038201548152505081526020019060010190610f51565b505050509050919050565b60008060009054906101000a900473ffffffffffffffffffffffffffffffffffffffff16905090565b6000610fe961202f565b600082118015610ffa5750601d8211155b611039576040517f08c379a0000000000000000000000000000000000000000000000000000000008152600401611030906132e0565b60405180910390fd5b600073ffffffffffffffffffffffffffffffffffffffff16600260008773ffffffffffffffffffffffffffffffffffffffff1673ffffffffffffffffffffffffffffffffffffffff16815260200190815260200160002060020160009054906101000a900473ffffffffffffffffffffffffffffffffffffffff1673ffffffffffffffffffffffffffffffffffffffff161461110a576040517f08c379a00000000000000000000000000000000000000000000000000000000081526004016111019061334c565b60405180910390fd5b600260008673ffffffffffffffffffffffffffffffffffffffff1673ffffffffffffffffffffffffffffffffffffffff16815260200190815260200160002060060160009054906101000a900460ff161561119a576040517f08c379a0000000000000000000000000000000000000000000000000000000008152600401611191906133de565b60405180910390fd5b6000600660008154809291906111af90613075565b9190505590506040518060e001604052808281526020018681526020018773ffffffffffffffffffffffffffffffffffffffff16815260200185815260200142815260200184815260200160011515815250600260008873ffffffffffffffffffffffffffffffffffffffff1673ffffffffffffffffffffffffffffffffffffffff16815260200190815260200160002060008201518160000155602082015181600101908161125f919061359d565b5060408201518160020160006101000a81548173ffffffffffffffffffffffffffffffffffffffff021916908373ffffffffffffffffffffffffffffffffffffffff160217905550606082015181600301556080820151816004015560a0820151816005015560c08201518160060160006101000a81548160ff021916908315150217905550905050856003600083815260200190815260200160002060006101000a81548173ffffffffffffffffffffffffffffffffffffffff021916908373ffffffffffffffffffffffffffffffffffffffff1602179055506005869080600181540180825580915050600190039060005260206000200160009091909190916101000a81548173ffffffffffffffffffffffffffffffffffffffff021916908373ffffffffffffffffffffffffffffffffffffffff160217905550600760008154809291906113b090613075565b91905055508573ffffffffffffffffffffffffffffffffffffffff16817fd37ba20fed08fa6f5fc3f0658d519de2503fa920ee11e8d4bba903f09867d06187876040516113fe9291906136a8565b60405180910390a380915050949350505050565b6000600580549050905090565b61142761202f565b600260008273ffffffffffffffffffffffffffffffffffffffff1673ffffffffffffffffffffffffffffffffffffffff16815260200190815260200160002060060160009054906101000a900460ff166114b6576040517f08c379a00000000000000000000000000000000000000000000000000000000081526004016114ad90613724565b60405180910390fd5b600760008154809291906114c990613744565b91905055506000600260008373ffffffffffffffffffffffffffffffffffffffff1673ffffffffffffffffffffffffffffffffffffffff16815260200190815260200160002060060160006101000a81548160ff02191690831515021790555060005b6005805490508110156116b5578173ffffffffffffffffffffffffffffffffffffffff166005828154811061156457611563613046565b5b9060005260206000200160009054906101000a900473ffffffffffffffffffffffffffffffffffffffff1673ffffffffffffffffffffffffffffffffffffffff16036116a257600560016005805490506115be919061376d565b815481106115cf576115ce613046565b5b9060005260206000200160009054906101000a900473ffffffffffffffffffffffffffffffffffffffff166005828154811061160e5761160d613046565b5b9060005260206000200160006101000a81548173ffffffffffffffffffffffffffffffffffffffff021916908373ffffffffffffffffffffffffffffffffffffffff1602179055506005805480611668576116676137a1565b5b6001900381819060005260206000200160006101000a81549073ffffffffffffffffffffffffffffffffffffffff021916905590556116b5565b80806116ad90613075565b91505061152c565b508073ffffffffffffffffffffffffffffffffffffffff16600260008373ffffffffffffffffffffffffffffffffffffffff1673ffffffffffffffffffffffffffffffffffffffff168152602001908152602001600020600001547fdfcc7e5babfa5dde64e1e03185335f35dd50ccee8caca36c8f16e0772e00e7e060405160405180910390a350565b61174761202f565b6000600260008673ffffffffffffffffffffffffffffffffffffffff1673ffffffffffffffffffffffffffffffffffffffff16815260200190815260200160002090508060060160009054906101000a900460ff166117db576040517f08c379a00000000000000000000000000000000000000000000000000000000081526004016117d290613724565b60405180910390fd5b6000821180156117ec5750601d8211155b61182b576040517f08c379a0000000000000000000000000000000000000000000000000000000008152600401611822906132e0565b60405180910390fd5b8381600101908161183c919061359d565b508281600301819055508181600501819055508473ffffffffffffffffffffffffffffffffffffffff1681600001547f8f3001d44624b7f8f07f4ddd01af705ec5d8e12ba0d89b87155465412830edb560405160405180910390a35050505050565b60606000805b6005805490508110156119655760026000600583815481106118c9576118c8613046565b5b9060005260206000200160009054906101000a900473ffffffffffffffffffffffffffffffffffffffff1673ffffffffffffffffffffffffffffffffffffffff1673ffffffffffffffffffffffffffffffffffffffff16815260200190815260200160002060060160009054906101000a900460ff1661195257818061194e90613075565b9250505b808061195d90613075565b9150506118a4565b5060008167ffffffffffffffff81111561198257611981612979565b5b6040519080825280602002602001820160405280156119bb57816020015b6119a8612348565b8152602001906001900390816119a05790505b5090506000805b600580549050811015611c545760026000600583815481106119e7576119e6613046565b5b9060005260206000200160009054906101000a900473ffffffffffffffffffffffffffffffffffffffff1673ffffffffffffffffffffffffffffffffffffffff1673ffffffffffffffffffffffffffffffffffffffff16815260200190815260200160002060060160009054906101000a900460ff16611c41576002600060058381548110611a7957611a78613046565b5b9060005260206000200160009054906101000a900473ffffffffffffffffffffffffffffffffffffffff1673ffffffffffffffffffffffffffffffffffffffff1673ffffffffffffffffffffffffffffffffffffffff1681526020019081526020016000206040518060e001604052908160008201548152602001600182018054611b0390612e24565b80601f0160208091040260200160405190810160405280929190818152602001828054611b2f90612e24565b8015611b7c5780601f10611b5157610100808354040283529160200191611b7c565b820191906000526020600020905b815481529060010190602001808311611b5f57829003601f168201915b505050505081526020016002820160009054906101000a900473ffffffffffffffffffffffffffffffffffffffff1673ffffffffffffffffffffffffffffffffffffffff1673ffffffffffffffffffffffffffffffffffffffff1681526020016003820154815260200160048201548152602001600582015481526020016006820160009054906101000a900460ff161515151581525050838381518110611c2757611c26613046565b5b60200260200101819052508180611c3d90613075565b9250505b8080611c4c90613075565b9150506119c2565b5081935050505090565b611c6661202f565b600073ffffffffffffffffffffffffffffffffffffffff168173ffffffffffffffffffffffffffffffffffffffff1603611cd85760006040517f1e4fbdf7000000000000000000000000000000000000000000000000000000008152600401611ccf9190612b90565b60405180910390fd5b611ce1816120b6565b50565b6000600260008373ffffffffffffffffffffffffffffffffffffffff1673ffffffffffffffffffffffffffffffffffffffff16815260200190815260200160002090508060060160009054906101000a900460ff16611d78576040517f08c379a0000000000000000000000000000000000000000000000000000000008152600401611d6f90613724565b60405180910390fd5b8060050154611d8561201f565b14611dc5576040517f08c379a0000000000000000000000000000000000000000000000000000000008152600401611dbc90613842565b60405180910390fd5b6000611dd482600301546106c2565b905080471015611e1d5782816040517f9d89681b000000000000000000000000000000000000000000000000000000008152600401611e149291906138ae565b60405180910390fd5b60008260020160009054906101000a900473ffffffffffffffffffffffffffffffffffffffff1673ffffffffffffffffffffffffffffffffffffffff1682604051611e679061391b565b60006040518083038185875af1925050503d8060008114611ea4576040519150601f19603f3d011682016040523d82523d6000602084013e611ea9565b606091505b5050905080611eed576040517f08c379a0000000000000000000000000000000000000000000000000000000008152600401611ee49061397c565b60405180910390fd5b600460008573ffffffffffffffffffffffffffffffffffffffff1673ffffffffffffffffffffffffffffffffffffffff16815260200190815260200160002060405180608001604052808560000154815260200142815260200185600301548152602001848152509080600181540180825580915050600190039060005260206000209060040201600090919091909150600082015181600001556020820151816001015560408201518160020155606082015181600301555050826003015460086000828254611fbe919061399c565b925050819055508373ffffffffffffffffffffffffffffffffffffffff167fe6784566ea810f71a9cd63f82925ef440935e26c9e28e52a099a00ff7af3bec88460030154846040516120119291906139d0565b60405180910390a250505050565b600061202a4261217a565b905090565b6120376121a1565b73ffffffffffffffffffffffffffffffffffffffff16612055610fb6565b73ffffffffffffffffffffffffffffffffffffffff16146120b4576120786121a1565b6040517f118cdaa70000000000000000000000000000000000000000000000000000000081526004016120ab9190612b90565b60405180910390fd5b565b60008060009054906101000a900473ffffffffffffffffffffffffffffffffffffffff169050816000806101000a81548173ffffffffffffffffffffffffffffffffffffffff021916908373ffffffffffffffffffffffffffffffffffffffff1602179055508173ffffffffffffffffffffffffffffffffffffffff168173ffffffffffffffffffffffffffffffffffffffff167f8be0079c531659141344cd1fd0a4f28419497f9722a3daafe3b4186f6b6457e060405160405180910390a35050565b6000612193620151808361218e9190612ef5565b6121a9565b909150905080915050919050565b600033905090565b600080600080849050600062253d8c62010bd9836121c791906139f9565b6121d191906139f9565b9050600062023ab18260046121e69190613a3d565b6121f09190613ab5565b9050600460038262023ab16122059190613a3d565b61220f91906139f9565b6122199190613ab5565b826122249190613b1f565b9150600062164b0960018461223991906139f9565b610fa06122469190613a3d565b6122509190613ab5565b9050601f6004826105b56122649190613a3d565b61226e9190613ab5565b846122799190613b1f565b61228391906139f9565b9250600061098f8460506122979190613a3d565b6122a19190613ab5565b9050600060508261098f6122b59190613a3d565b6122bf9190613ab5565b856122ca9190613b1f565b9050600b826122d99190613ab5565b945084600c6122e89190613a3d565b6002836122f591906139f9565b6122ff9190613b1f565b915084836031866123109190613b1f565b606461231c9190613a3d565b61232691906139f9565b61233091906139f9565b92508298508197508096505050505050509193909250565b6040518060e001604052806000815260200160608152602001600073ffffffffffffffffffffffffffffffffffffffff1681526020016000815260200160008152602001600081526020016000151581525090565b6000604051905090565b600080fd5b600080fd5b600073ffffffffffffffffffffffffffffffffffffffff82169050919050565b60006123dc826123b1565b9050919050565b6123ec816123d1565b81146123f757600080fd5b50565b600081359050612409816123e3565b92915050565b600060208284031215612425576124246123a7565b5b6000612433848285016123fa565b91505092915050565b6000819050919050565b61244f8161243c565b82525050565b600081519050919050565b600082825260208201905092915050565b60005b8381101561248f578082015181840152602081019050612474565b60008484015250505050565b6000601f19601f8301169050919050565b60006124b782612455565b6124c18185612460565b93506124d1818560208601612471565b6124da8161249b565b840191505092915050565b60006124f0826123b1565b9050919050565b612500816124e5565b82525050565b60008115159050919050565b61251b81612506565b82525050565b600060e0830160008301516125396000860182612446565b506020830151848203602086015261255182826124ac565b915050604083015161256660408601826124f7565b5060608301516125796060860182612446565b50608083015161258c6080860182612446565b5060a083015161259f60a0860182612446565b5060c08301516125b260c0860182612512565b508091505092915050565b600060208201905081810360008301526125d78184612521565b905092915050565b6125e88161243c565b82525050565b600060208201905061260360008301846125df565b92915050565b600081519050919050565b600082825260208201905092915050565b6000819050602082019050919050565b61263e816123d1565b82525050565b60006126508383612635565b60208301905092915050565b6000602082019050919050565b600061267482612609565b61267e8185612614565b935061268983612625565b8060005b838110156126ba5781516126a18882612644565b97506126ac8361265c565b92505060018101905061268d565b5085935050505092915050565b600060208201905081810360008301526126e18184612669565b905092915050565b6126f28161243c565b81146126fd57600080fd5b50565b60008135905061270f816126e9565b92915050565b60006020828403121561272b5761272a6123a7565b5b600061273984828501612700565b91505092915050565b600080fd5b600080fd5b600080fd5b60008083601f84011261276757612766612742565b5b8235905067ffffffffffffffff81111561278457612783612747565b5b6020830191508360018202830111156127a05761279f61274c565b5b9250929050565b600080602083850312156127be576127bd6123a7565b5b600083013567ffffffffffffffff8111156127dc576127db6123ac565b5b6127e885828601612751565b92509250509250929050565b600081519050919050565b600082825260208201905092915050565b6000819050602082019050919050565b600060e0830160008301516128386000860182612446565b506020830151848203602086015261285082826124ac565b915050604083015161286560408601826124f7565b5060608301516128786060860182612446565b50608083015161288b6080860182612446565b5060a083015161289e60a0860182612446565b5060c08301516128b160c0860182612512565b508091505092915050565b60006128c88383612820565b905092915050565b6000602082019050919050565b60006128e8826127f4565b6128f281856127ff565b93508360208202850161290485612810565b8060005b85811015612940578484038952815161292185826128bc565b945061292c836128d0565b925060208a01995050600181019050612908565b50829750879550505050505092915050565b6000602082019050818103600083015261296c81846128dd565b905092915050565b600080fd5b7f4e487b7100000000000000000000000000000000000000000000000000000000600052604160045260246000fd5b6129b18261249b565b810181811067ffffffffffffffff821117156129d0576129cf612979565b5b80604052505050565b60006129e361239d565b90506129ef82826129a8565b919050565b600067ffffffffffffffff821115612a0f57612a0e612979565b5b612a188261249b565b9050602081019050919050565b82818337600083830152505050565b6000612a47612a42846129f4565b6129d9565b905082815260208101848484011115612a6357612a62612974565b5b612a6e848285612a25565b509392505050565b600082601f830112612a8b57612a8a612742565b5b8135612a9b848260208601612a34565b91505092915050565b600060208284031215612aba57612ab96123a7565b5b600082013567ffffffffffffffff811115612ad857612ad76123ac565b5b612ae484828501612a76565b91505092915050565b612af681612506565b82525050565b600081519050919050565b600082825260208201905092915050565b6000612b2382612afc565b612b2d8185612b07565b9350612b3d818560208601612471565b612b468161249b565b840191505092915050565b6000604082019050612b666000830185612aed565b8181036020830152612b788184612b18565b90509392505050565b612b8a816123d1565b82525050565b6000602082019050612ba56000830184612b81565b92915050565b600081519050919050565b600082825260208201905092915050565b6000819050602082019050919050565b608082016000820151612bed6000850182612446565b506020820151612c006020850182612446565b506040820151612c136040850182612446565b506060820151612c266060850182612446565b50505050565b6000612c388383612bd7565b60808301905092915050565b6000602082019050919050565b6000612c5c82612bab565b612c668185612bb6565b9350612c7183612bc7565b8060005b83811015612ca2578151612c898882612c2c565b9750612c9483612c44565b925050600181019050612c75565b5085935050505092915050565b60006020820190508181036000830152612cc98184612c51565b905092915050565b600067ffffffffffffffff821115612cec57612ceb612979565b5b612cf58261249b565b9050602081019050919050565b6000612d15612d1084612cd1565b6129d9565b905082815260208101848484011115612d3157612d30612974565b5b612d3c848285612a25565b509392505050565b600082601f830112612d5957612d58612742565b5b8135612d69848260208601612d02565b91505092915050565b60008060008060808587031215612d8c57612d8b6123a7565b5b6000612d9a878288016123fa565b945050602085013567ffffffffffffffff811115612dbb57612dba6123ac565b5b612dc787828801612d44565b9350506040612dd887828801612700565b9250506060612de987828801612700565b91505092959194509250565b7f4e487b7100000000000000000000000000000000000000000000000000000000600052602260045260246000fd5b60006002820490506001821680612e3c57607f821691505b602082108103612e4f57612e4e612df5565b5b50919050565b7f4e487b7100000000000000000000000000000000000000000000000000000000600052601160045260246000fd5b6000612e8f8261243c565b9150612e9a8361243c565b9250828202612ea88161243c565b91508282048414831517612ebf57612ebe612e55565b5b5092915050565b7f4e487b7100000000000000000000000000000000000000000000000000000000600052601260045260246000fd5b6000612f008261243c565b9150612f0b8361243c565b925082612f1b57612f1a612ec6565b5b828204905092915050565b600082825260208201905092915050565b7f55706b656570206e6f74206e6565646564000000000000000000000000000000600082015250565b6000612f6d601183612f26565b9150612f7882612f37565b602082019050919050565b60006020820190508181036000830152612f9c81612f60565b9050919050565b600082905092915050565b60007fffffffffffffffffffffffffffffffffffffffff00000000000000000000000082169050919050565b600082821b905092915050565b6000612ff38383612fa3565b82612ffe8135612fae565b9250601482101561303e576130397fffffffffffffffffffffffffffffffffffffffff00000000000000000000000083601403600802612fda565b831692505b505092915050565b7f4e487b7100000000000000000000000000000000000000000000000000000000600052603260045260246000fd5b60006130808261243c565b91507fffffffffffffffffffffffffffffffffffffffffffffffffffffffffffffffff82036130b2576130b1612e55565b5b600182019050919050565b60008160601b9050919050565b60006130d5826130bd565b9050919050565b60006130e7826130ca565b9050919050565b6130ff6130fa826123d1565b6130dc565b82525050565b600061311182846130ee565b60148201915081905092915050565b600069ffffffffffffffffffff82169050919050565b61313f81613120565b811461314a57600080fd5b50565b60008151905061315c81613136565b92915050565b6000819050919050565b61317581613162565b811461318057600080fd5b50565b6000815190506131928161316c565b92915050565b6000815190506131a7816126e9565b92915050565b600080600080600060a086880312156131c9576131c86123a7565b5b60006131d78882890161314d565b95505060206131e888828901613183565b94505060406131f988828901613198565b935050606061320a88828901613198565b925050608061321b8882890161314d565b9150509295509295909350565b7f496e76616c696420707269636520646174610000000000000000000000000000600082015250565b600061325e601283612f26565b915061326982613228565b602082019050919050565b6000602082019050818103600083015261328d81613251565b9050919050565b7f496e76616c6964207061796d656e742064617900000000000000000000000000600082015250565b60006132ca601383612f26565b91506132d582613294565b602082019050919050565b600060208201905081810360008301526132f9816132bd565b9050919050565b7f456d706c6f79656520616c726561647920657869737473000000000000000000600082015250565b6000613336601783612f26565b915061334182613300565b602082019050919050565b6000602082019050818103600083015261336581613329565b9050919050565b7f456d706c6f79656520616c72656164792065786973747320616e64206973206160008201527f6374697665000000000000000000000000000000000000000000000000000000602082015250565b60006133c8602583612f26565b91506133d38261336c565b604082019050919050565b600060208201905081810360008301526133f7816133bb565b9050919050565b60008190508160005260206000209050919050565b60006020601f8301049050919050565b6000600883026134537fffffffffffffffffffffffffffffffffffffffffffffffffffffffffffffffff82612fda565b61345d8683612fda565b95508019841693508086168417925050509392505050565b6000819050919050565b600061349a6134956134908461243c565b613475565b61243c565b9050919050565b6000819050919050565b6134b48361347f565b6134c86134c0826134a1565b848454613423565b825550505050565b600090565b6134dd6134d0565b6134e88184846134ab565b505050565b5b8181101561350c576135016000826134d5565b6001810190506134ee565b5050565b601f82111561355157613522816133fe565b61352b84613413565b8101602085101561353a578190505b61354e61354685613413565b8301826134ed565b50505b505050565b600082821c905092915050565b600061357460001984600802613556565b1980831691505092915050565b600061358d8383613563565b9150826002028217905092915050565b6135a682612455565b67ffffffffffffffff8111156135bf576135be612979565b5b6135c98254612e24565b6135d4828285613510565b600060209050601f83116001811461360757600084156135f5578287015190505b6135ff8582613581565b865550613667565b601f198416613615866133fe565b60005b8281101561363d57848901518255600182019150602085019450602081019050613618565b8683101561365a5784890151613656601f891682613563565b8355505b6001600288020188555050505b505050505050565b600061367a82612455565b6136848185612f26565b9350613694818560208601612471565b61369d8161249b565b840191505092915050565b600060408201905081810360008301526136c2818561366f565b90506136d160208301846125df565b9392505050565b7f456d706c6f796565206e6f742061637469766500000000000000000000000000600082015250565b600061370e601383612f26565b9150613719826136d8565b602082019050919050565b6000602082019050818103600083015261373d81613701565b9050919050565b600061374f8261243c565b91506000820361376257613761612e55565b5b600182039050919050565b60006137788261243c565b91506137838361243c565b925082820390508181111561379b5761379a612e55565b5b92915050565b7f4e487b7100000000000000000000000000000000000000000000000000000000600052603160045260246000fd5b7f546f646179206973206e6f7420656d706c6f7965652773207061796d656e742060008201527f6461790000000000000000000000000000000000000000000000000000000000602082015250565b600061382c602383612f26565b9150613837826137d0565b604082019050919050565b6000602082019050818103600083015261385b8161381f565b9050919050565b7f496e73756666696369656e7420636f6e74726163742062616c616e6365000000600082015250565b6000613898601d83612f26565b91506138a382613862565b602082019050919050565b60006060820190506138c36000830185612b81565b6138d060208301846125df565b81810360408301526138e18161388b565b90509392505050565b600081905092915050565b50565b60006139056000836138ea565b9150613910826138f5565b600082019050919050565b6000613926826138f8565b9150819050919050565b7f455448207061796d656e74206661696c65640000000000000000000000000000600082015250565b6000613966601283612f26565b915061397182613930565b602082019050919050565b6000602082019050818103600083015261399581613959565b9050919050565b60006139a78261243c565b91506139b28361243c565b92508282019050808211156139ca576139c9612e55565b5b92915050565b60006040820190506139e560008301856125df565b6139f260208301846125df565b9392505050565b6000613a0482613162565b9150613a0f83613162565b925082820190508281121560008312168382126000841215161715613a3757613a36612e55565b5b92915050565b6000613a4882613162565b9150613a5383613162565b9250828202613a6181613162565b91507f80000000000000000000000000000000000000000000000000000000000000008414600084121615613a9957613a98612e55565b5b8282058414831517613aae57613aad612e55565b5b5092915050565b6000613ac082613162565b9150613acb83613162565b925082613adb57613ada612ec6565b5b600160000383147f800000000000000000000000000000000000000000000000000000000000000083141615613b1457613b13612e55565b5b828205905092915050565b6000613b2a82613162565b9150613b3583613162565b9250828203905081811260008412168282136000851215161715613b5c57613b5b612e55565b5b9291505056fea26469706673582212205629f87bb9c7b14d427a389e664d820ce50ec99ad56f91766f706c74bfd20bc464736f6c63430008140033",
  "linkReferences": {},
  "deployedLinkReferences": {}
}